{
  "abi": [
    {
      "type": "constructor",
      "inputs": [
        {
          "name": "_strategyManager",
          "type": "address",
          "internalType": "contract IStrategyManager"
        },
        {
          "name": "_slasher",
          "type": "address",
          "internalType": "contract ISlasher"
        },
        {
          "name": "_eigenPodManager",
          "type": "address",
          "internalType": "contract IEigenPodManager"
        }
      ],
      "stateMutability": "nonpayable"
    },
    {
      "type": "function",
      "name": "DELEGATION_APPROVAL_TYPEHASH",
      "inputs": [],
      "outputs": [
        {
          "name": "",
          "type": "bytes32",
          "internalType": "bytes32"
        }
      ],
      "stateMutability": "view"
    },
    {
      "type": "function",
      "name": "DOMAIN_TYPEHASH",
      "inputs": [],
      "outputs": [
        {
          "name": "",
          "type": "bytes32",
          "internalType": "bytes32"
        }
      ],
      "stateMutability": "view"
    },
    {
      "type": "function",
      "name": "MAX_STAKER_OPT_OUT_WINDOW_BLOCKS",
      "inputs": [],
      "outputs": [
        {
          "name": "",
          "type": "uint256",
          "internalType": "uint256"
        }
      ],
      "stateMutability": "view"
    },
    {
      "type": "function",
      "name": "MAX_WITHDRAWAL_DELAY_BLOCKS",
      "inputs": [],
      "outputs": [
        {
          "name": "",
          "type": "uint256",
          "internalType": "uint256"
        }
      ],
      "stateMutability": "view"
    },
    {
      "type": "function",
      "name": "STAKER_DELEGATION_TYPEHASH",
      "inputs": [],
      "outputs": [
        {
          "name": "",
          "type": "bytes32",
          "internalType": "bytes32"
        }
      ],
      "stateMutability": "view"
    },
    {
      "type": "function",
      "name": "beaconChainETHStrategy",
      "inputs": [],
      "outputs": [
        {
          "name": "",
          "type": "address",
          "internalType": "contract IStrategy"
        }
      ],
      "stateMutability": "view"
    },
    {
      "type": "function",
      "name": "calculateCurrentStakerDelegationDigestHash",
      "inputs": [
        {
          "name": "staker",
          "type": "address",
          "internalType": "address"
        },
        {
          "name": "operator",
          "type": "address",
          "internalType": "address"
        },
        {
          "name": "expiry",
          "type": "uint256",
          "internalType": "uint256"
        }
      ],
      "outputs": [
        {
          "name": "",
          "type": "bytes32",
          "internalType": "bytes32"
        }
      ],
      "stateMutability": "view"
    },
    {
      "type": "function",
      "name": "calculateDelegationApprovalDigestHash",
      "inputs": [
        {
          "name": "staker",
          "type": "address",
          "internalType": "address"
        },
        {
          "name": "operator",
          "type": "address",
          "internalType": "address"
        },
        {
          "name": "_delegationApprover",
          "type": "address",
          "internalType": "address"
        },
        {
          "name": "approverSalt",
          "type": "bytes32",
          "internalType": "bytes32"
        },
        {
          "name": "expiry",
          "type": "uint256",
          "internalType": "uint256"
        }
      ],
      "outputs": [
        {
          "name": "",
          "type": "bytes32",
          "internalType": "bytes32"
        }
      ],
      "stateMutability": "view"
    },
    {
      "type": "function",
      "name": "calculateStakerDelegationDigestHash",
      "inputs": [
        {
          "name": "staker",
          "type": "address",
          "internalType": "address"
        },
        {
          "name": "_stakerNonce",
          "type": "uint256",
          "internalType": "uint256"
        },
        {
          "name": "operator",
          "type": "address",
          "internalType": "address"
        },
        {
          "name": "expiry",
          "type": "uint256",
          "internalType": "uint256"
        }
      ],
      "outputs": [
        {
          "name": "",
          "type": "bytes32",
          "internalType": "bytes32"
        }
      ],
      "stateMutability": "view"
    },
    {
      "type": "function",
      "name": "calculateWithdrawalRoot",
      "inputs": [
        {
          "name": "withdrawal",
          "type": "tuple",
          "internalType": "struct IDelegationManager.Withdrawal",
          "components": [
            {
              "name": "staker",
              "type": "address",
              "internalType": "address"
            },
            {
              "name": "delegatedTo",
              "type": "address",
              "internalType": "address"
            },
            {
              "name": "withdrawer",
              "type": "address",
              "internalType": "address"
            },
            {
              "name": "nonce",
              "type": "uint256",
              "internalType": "uint256"
            },
            {
              "name": "startBlock",
              "type": "uint32",
              "internalType": "uint32"
            },
            {
              "name": "strategies",
              "type": "address[]",
              "internalType": "contract IStrategy[]"
            },
            {
              "name": "shares",
              "type": "uint256[]",
              "internalType": "uint256[]"
            }
          ]
        }
      ],
      "outputs": [
        {
          "name": "",
          "type": "bytes32",
          "internalType": "bytes32"
        }
      ],
      "stateMutability": "pure"
    },
    {
      "type": "function",
      "name": "completeQueuedWithdrawal",
      "inputs": [
        {
          "name": "withdrawal",
          "type": "tuple",
          "internalType": "struct IDelegationManager.Withdrawal",
          "components": [
            {
              "name": "staker",
              "type": "address",
              "internalType": "address"
            },
            {
              "name": "delegatedTo",
              "type": "address",
              "internalType": "address"
            },
            {
              "name": "withdrawer",
              "type": "address",
              "internalType": "address"
            },
            {
              "name": "nonce",
              "type": "uint256",
              "internalType": "uint256"
            },
            {
              "name": "startBlock",
              "type": "uint32",
              "internalType": "uint32"
            },
            {
              "name": "strategies",
              "type": "address[]",
              "internalType": "contract IStrategy[]"
            },
            {
              "name": "shares",
              "type": "uint256[]",
              "internalType": "uint256[]"
            }
          ]
        },
        {
          "name": "tokens",
          "type": "address[]",
          "internalType": "contract IERC20[]"
        },
        {
          "name": "middlewareTimesIndex",
          "type": "uint256",
          "internalType": "uint256"
        },
        {
          "name": "receiveAsTokens",
          "type": "bool",
          "internalType": "bool"
        }
      ],
      "outputs": [],
      "stateMutability": "nonpayable"
    },
    {
      "type": "function",
      "name": "completeQueuedWithdrawals",
      "inputs": [
        {
          "name": "withdrawals",
          "type": "tuple[]",
          "internalType": "struct IDelegationManager.Withdrawal[]",
          "components": [
            {
              "name": "staker",
              "type": "address",
              "internalType": "address"
            },
            {
              "name": "delegatedTo",
              "type": "address",
              "internalType": "address"
            },
            {
              "name": "withdrawer",
              "type": "address",
              "internalType": "address"
            },
            {
              "name": "nonce",
              "type": "uint256",
              "internalType": "uint256"
            },
            {
              "name": "startBlock",
              "type": "uint32",
              "internalType": "uint32"
            },
            {
              "name": "strategies",
              "type": "address[]",
              "internalType": "contract IStrategy[]"
            },
            {
              "name": "shares",
              "type": "uint256[]",
              "internalType": "uint256[]"
            }
          ]
        },
        {
          "name": "tokens",
          "type": "address[][]",
          "internalType": "contract IERC20[][]"
        },
        {
          "name": "middlewareTimesIndexes",
          "type": "uint256[]",
          "internalType": "uint256[]"
        },
        {
          "name": "receiveAsTokens",
          "type": "bool[]",
          "internalType": "bool[]"
        }
      ],
      "outputs": [],
      "stateMutability": "nonpayable"
    },
    {
      "type": "function",
      "name": "cumulativeWithdrawalsQueued",
      "inputs": [
        {
          "name": "",
          "type": "address",
          "internalType": "address"
        }
      ],
      "outputs": [
        {
          "name": "",
          "type": "uint256",
          "internalType": "uint256"
        }
      ],
      "stateMutability": "view"
    },
    {
      "type": "function",
      "name": "decreaseDelegatedShares",
      "inputs": [
        {
          "name": "staker",
          "type": "address",
          "internalType": "address"
        },
        {
          "name": "strategy",
          "type": "address",
          "internalType": "contract IStrategy"
        },
        {
          "name": "shares",
          "type": "uint256",
          "internalType": "uint256"
        }
      ],
      "outputs": [],
      "stateMutability": "nonpayable"
    },
    {
      "type": "function",
      "name": "delegateTo",
      "inputs": [
        {
          "name": "operator",
          "type": "address",
          "internalType": "address"
        },
        {
          "name": "approverSignatureAndExpiry",
          "type": "tuple",
          "internalType": "struct ISignatureUtils.SignatureWithExpiry",
          "components": [
            {
              "name": "signature",
              "type": "bytes",
              "internalType": "bytes"
            },
            {
              "name": "expiry",
              "type": "uint256",
              "internalType": "uint256"
            }
          ]
        },
        {
          "name": "approverSalt",
          "type": "bytes32",
          "internalType": "bytes32"
        }
      ],
      "outputs": [],
      "stateMutability": "nonpayable"
    },
    {
      "type": "function",
      "name": "delegateToBySignature",
      "inputs": [
        {
          "name": "staker",
          "type": "address",
          "internalType": "address"
        },
        {
          "name": "operator",
          "type": "address",
          "internalType": "address"
        },
        {
          "name": "stakerSignatureAndExpiry",
          "type": "tuple",
          "internalType": "struct ISignatureUtils.SignatureWithExpiry",
          "components": [
            {
              "name": "signature",
              "type": "bytes",
              "internalType": "bytes"
            },
            {
              "name": "expiry",
              "type": "uint256",
              "internalType": "uint256"
            }
          ]
        },
        {
          "name": "approverSignatureAndExpiry",
          "type": "tuple",
          "internalType": "struct ISignatureUtils.SignatureWithExpiry",
          "components": [
            {
              "name": "signature",
              "type": "bytes",
              "internalType": "bytes"
            },
            {
              "name": "expiry",
              "type": "uint256",
              "internalType": "uint256"
            }
          ]
        },
        {
          "name": "approverSalt",
          "type": "bytes32",
          "internalType": "bytes32"
        }
      ],
      "outputs": [],
      "stateMutability": "nonpayable"
    },
    {
      "type": "function",
      "name": "delegatedTo",
      "inputs": [
        {
          "name": "",
          "type": "address",
          "internalType": "address"
        }
      ],
      "outputs": [
        {
          "name": "",
          "type": "address",
          "internalType": "address"
        }
      ],
      "stateMutability": "view"
    },
    {
      "type": "function",
      "name": "delegationApprover",
      "inputs": [
        {
          "name": "operator",
          "type": "address",
          "internalType": "address"
        }
      ],
      "outputs": [
        {
          "name": "",
          "type": "address",
          "internalType": "address"
        }
      ],
      "stateMutability": "view"
    },
    {
      "type": "function",
      "name": "delegationApproverSaltIsSpent",
      "inputs": [
        {
          "name": "",
          "type": "address",
          "internalType": "address"
        },
        {
          "name": "",
          "type": "bytes32",
          "internalType": "bytes32"
        }
      ],
      "outputs": [
        {
          "name": "",
          "type": "bool",
          "internalType": "bool"
        }
      ],
      "stateMutability": "view"
    },
    {
      "type": "function",
      "name": "domainSeparator",
      "inputs": [],
      "outputs": [
        {
          "name": "",
          "type": "bytes32",
          "internalType": "bytes32"
        }
      ],
      "stateMutability": "view"
    },
    {
      "type": "function",
      "name": "earningsReceiver",
      "inputs": [
        {
          "name": "operator",
          "type": "address",
          "internalType": "address"
        }
      ],
      "outputs": [
        {
          "name": "",
          "type": "address",
          "internalType": "address"
        }
      ],
      "stateMutability": "view"
    },
    {
      "type": "function",
      "name": "eigenPodManager",
      "inputs": [],
      "outputs": [
        {
          "name": "",
          "type": "address",
          "internalType": "contract IEigenPodManager"
        }
      ],
      "stateMutability": "view"
    },
    {
      "type": "function",
      "name": "getDelegatableShares",
      "inputs": [
        {
          "name": "staker",
          "type": "address",
          "internalType": "address"
        }
      ],
      "outputs": [
        {
          "name": "",
          "type": "address[]",
          "internalType": "contract IStrategy[]"
        },
        {
          "name": "",
          "type": "uint256[]",
          "internalType": "uint256[]"
        }
      ],
      "stateMutability": "view"
    },
    {
      "type": "function",
      "name": "getOperatorShares",
      "inputs": [
        {
          "name": "operator",
          "type": "address",
          "internalType": "address"
        },
        {
          "name": "strategies",
          "type": "address[]",
          "internalType": "contract IStrategy[]"
        }
      ],
      "outputs": [
        {
          "name": "",
          "type": "uint256[]",
          "internalType": "uint256[]"
        }
      ],
      "stateMutability": "view"
    },
    {
      "type": "function",
      "name": "getWithdrawalDelay",
      "inputs": [
        {
          "name": "strategies",
          "type": "address[]",
          "internalType": "contract IStrategy[]"
        }
      ],
      "outputs": [
        {
          "name": "",
          "type": "uint256",
          "internalType": "uint256"
        }
      ],
      "stateMutability": "view"
    },
    {
      "type": "function",
      "name": "increaseDelegatedShares",
      "inputs": [
        {
          "name": "staker",
          "type": "address",
          "internalType": "address"
        },
        {
          "name": "strategy",
          "type": "address",
          "internalType": "contract IStrategy"
        },
        {
          "name": "shares",
          "type": "uint256",
          "internalType": "uint256"
        }
      ],
      "outputs": [],
      "stateMutability": "nonpayable"
    },
    {
      "type": "function",
      "name": "initialize",
      "inputs": [
        {
          "name": "initialOwner",
          "type": "address",
          "internalType": "address"
        },
        {
          "name": "_pauserRegistry",
          "type": "address",
          "internalType": "contract IPauserRegistry"
        },
        {
          "name": "initialPausedStatus",
          "type": "uint256",
          "internalType": "uint256"
        },
        {
          "name": "_minWithdrawalDelayBlocks",
          "type": "uint256",
          "internalType": "uint256"
        },
        {
          "name": "_strategies",
          "type": "address[]",
          "internalType": "contract IStrategy[]"
        },
        {
          "name": "_withdrawalDelayBlocks",
          "type": "uint256[]",
          "internalType": "uint256[]"
        }
      ],
      "outputs": [],
      "stateMutability": "nonpayable"
    },
    {
      "type": "function",
      "name": "isDelegated",
      "inputs": [
        {
          "name": "staker",
          "type": "address",
          "internalType": "address"
        }
      ],
      "outputs": [
        {
          "name": "",
          "type": "bool",
          "internalType": "bool"
        }
      ],
      "stateMutability": "view"
    },
    {
      "type": "function",
      "name": "isOperator",
      "inputs": [
        {
          "name": "operator",
          "type": "address",
          "internalType": "address"
        }
      ],
      "outputs": [
        {
          "name": "",
          "type": "bool",
          "internalType": "bool"
        }
      ],
      "stateMutability": "view"
    },
    {
      "type": "function",
      "name": "migrateQueuedWithdrawals",
      "inputs": [
        {
          "name": "withdrawalsToMigrate",
          "type": "tuple[]",
          "internalType": "struct IStrategyManager.DeprecatedStruct_QueuedWithdrawal[]",
          "components": [
            {
              "name": "strategies",
              "type": "address[]",
              "internalType": "contract IStrategy[]"
            },
            {
              "name": "shares",
              "type": "uint256[]",
              "internalType": "uint256[]"
            },
            {
              "name": "staker",
              "type": "address",
              "internalType": "address"
            },
            {
              "name": "withdrawerAndNonce",
              "type": "tuple",
              "internalType": "struct IStrategyManager.DeprecatedStruct_WithdrawerAndNonce",
              "components": [
                {
                  "name": "withdrawer",
                  "type": "address",
                  "internalType": "address"
                },
                {
                  "name": "nonce",
                  "type": "uint96",
                  "internalType": "uint96"
                }
              ]
            },
            {
              "name": "withdrawalStartBlock",
              "type": "uint32",
              "internalType": "uint32"
            },
            {
              "name": "delegatedAddress",
              "type": "address",
              "internalType": "address"
            }
          ]
        }
      ],
      "outputs": [],
      "stateMutability": "nonpayable"
    },
    {
      "type": "function",
      "name": "minWithdrawalDelayBlocks",
      "inputs": [],
      "outputs": [
        {
          "name": "",
          "type": "uint256",
          "internalType": "uint256"
        }
      ],
      "stateMutability": "view"
    },
    {
      "type": "function",
      "name": "modifyOperatorDetails",
      "inputs": [
        {
          "name": "newOperatorDetails",
          "type": "tuple",
          "internalType": "struct IDelegationManager.OperatorDetails",
          "components": [
            {
              "name": "earningsReceiver",
              "type": "address",
              "internalType": "address"
            },
            {
              "name": "delegationApprover",
              "type": "address",
              "internalType": "address"
            },
            {
              "name": "stakerOptOutWindowBlocks",
              "type": "uint32",
              "internalType": "uint32"
            }
          ]
        }
      ],
      "outputs": [],
      "stateMutability": "nonpayable"
    },
    {
      "type": "function",
      "name": "operatorDetails",
      "inputs": [
        {
          "name": "operator",
          "type": "address",
          "internalType": "address"
        }
      ],
      "outputs": [
        {
          "name": "",
          "type": "tuple",
          "internalType": "struct IDelegationManager.OperatorDetails",
          "components": [
            {
              "name": "earningsReceiver",
              "type": "address",
              "internalType": "address"
            },
            {
              "name": "delegationApprover",
              "type": "address",
              "internalType": "address"
            },
            {
              "name": "stakerOptOutWindowBlocks",
              "type": "uint32",
              "internalType": "uint32"
            }
          ]
        }
      ],
      "stateMutability": "view"
    },
    {
      "type": "function",
      "name": "operatorShares",
      "inputs": [
        {
          "name": "",
          "type": "address",
          "internalType": "address"
        },
        {
          "name": "",
          "type": "address",
          "internalType": "contract IStrategy"
        }
      ],
      "outputs": [
        {
          "name": "",
          "type": "uint256",
          "internalType": "uint256"
        }
      ],
      "stateMutability": "view"
    },
    {
      "type": "function",
      "name": "owner",
      "inputs": [],
      "outputs": [
        {
          "name": "",
          "type": "address",
          "internalType": "address"
        }
      ],
      "stateMutability": "view"
    },
    {
      "type": "function",
      "name": "pause",
      "inputs": [
        {
          "name": "newPausedStatus",
          "type": "uint256",
          "internalType": "uint256"
        }
      ],
      "outputs": [],
      "stateMutability": "nonpayable"
    },
    {
      "type": "function",
      "name": "pauseAll",
      "inputs": [],
      "outputs": [],
      "stateMutability": "nonpayable"
    },
    {
      "type": "function",
      "name": "paused",
      "inputs": [
        {
          "name": "index",
          "type": "uint8",
          "internalType": "uint8"
        }
      ],
      "outputs": [
        {
          "name": "",
          "type": "bool",
          "internalType": "bool"
        }
      ],
      "stateMutability": "view"
    },
    {
      "type": "function",
      "name": "paused",
      "inputs": [],
      "outputs": [
        {
          "name": "",
          "type": "uint256",
          "internalType": "uint256"
        }
      ],
      "stateMutability": "view"
    },
    {
      "type": "function",
      "name": "pauserRegistry",
      "inputs": [],
      "outputs": [
        {
          "name": "",
          "type": "address",
          "internalType": "contract IPauserRegistry"
        }
      ],
      "stateMutability": "view"
    },
    {
      "type": "function",
      "name": "pendingWithdrawals",
      "inputs": [
        {
          "name": "",
          "type": "bytes32",
          "internalType": "bytes32"
        }
      ],
      "outputs": [
        {
          "name": "",
          "type": "bool",
          "internalType": "bool"
        }
      ],
      "stateMutability": "view"
    },
    {
      "type": "function",
      "name": "queueWithdrawals",
      "inputs": [
        {
          "name": "queuedWithdrawalParams",
          "type": "tuple[]",
          "internalType": "struct IDelegationManager.QueuedWithdrawalParams[]",
          "components": [
            {
              "name": "strategies",
              "type": "address[]",
              "internalType": "contract IStrategy[]"
            },
            {
              "name": "shares",
              "type": "uint256[]",
              "internalType": "uint256[]"
            },
            {
              "name": "withdrawer",
              "type": "address",
              "internalType": "address"
            }
          ]
        }
      ],
      "outputs": [
        {
          "name": "",
          "type": "bytes32[]",
          "internalType": "bytes32[]"
        }
      ],
      "stateMutability": "nonpayable"
    },
    {
      "type": "function",
      "name": "registerAsOperator",
      "inputs": [
        {
          "name": "registeringOperatorDetails",
          "type": "tuple",
          "internalType": "struct IDelegationManager.OperatorDetails",
          "components": [
            {
              "name": "earningsReceiver",
              "type": "address",
              "internalType": "address"
            },
            {
              "name": "delegationApprover",
              "type": "address",
              "internalType": "address"
            },
            {
              "name": "stakerOptOutWindowBlocks",
              "type": "uint32",
              "internalType": "uint32"
            }
          ]
        },
        {
          "name": "metadataURI",
          "type": "string",
          "internalType": "string"
        }
      ],
      "outputs": [],
      "stateMutability": "nonpayable"
    },
    {
      "type": "function",
      "name": "renounceOwnership",
      "inputs": [],
      "outputs": [],
      "stateMutability": "nonpayable"
    },
    {
      "type": "function",
      "name": "setMinWithdrawalDelayBlocks",
      "inputs": [
        {
          "name": "newMinWithdrawalDelayBlocks",
          "type": "uint256",
          "internalType": "uint256"
        }
      ],
      "outputs": [],
      "stateMutability": "nonpayable"
    },
    {
      "type": "function",
      "name": "setPauserRegistry",
      "inputs": [
        {
          "name": "newPauserRegistry",
          "type": "address",
          "internalType": "contract IPauserRegistry"
        }
      ],
      "outputs": [],
      "stateMutability": "nonpayable"
    },
    {
      "type": "function",
      "name": "setStrategyWithdrawalDelayBlocks",
      "inputs": [
        {
          "name": "strategies",
          "type": "address[]",
          "internalType": "contract IStrategy[]"
        },
        {
          "name": "withdrawalDelayBlocks",
          "type": "uint256[]",
          "internalType": "uint256[]"
        }
      ],
      "outputs": [],
      "stateMutability": "nonpayable"
    },
    {
      "type": "function",
      "name": "slasher",
      "inputs": [],
      "outputs": [
        {
          "name": "",
          "type": "address",
          "internalType": "contract ISlasher"
        }
      ],
      "stateMutability": "view"
    },
    {
      "type": "function",
      "name": "stakerNonce",
      "inputs": [
        {
          "name": "",
          "type": "address",
          "internalType": "address"
        }
      ],
      "outputs": [
        {
          "name": "",
          "type": "uint256",
          "internalType": "uint256"
        }
      ],
      "stateMutability": "view"
    },
    {
      "type": "function",
      "name": "stakerOptOutWindowBlocks",
      "inputs": [
        {
          "name": "operator",
          "type": "address",
          "internalType": "address"
        }
      ],
      "outputs": [
        {
          "name": "",
          "type": "uint256",
          "internalType": "uint256"
        }
      ],
      "stateMutability": "view"
    },
    {
      "type": "function",
      "name": "strategyManager",
      "inputs": [],
      "outputs": [
        {
          "name": "",
          "type": "address",
          "internalType": "contract IStrategyManager"
        }
      ],
      "stateMutability": "view"
    },
    {
      "type": "function",
      "name": "strategyWithdrawalDelayBlocks",
      "inputs": [
        {
          "name": "",
          "type": "address",
          "internalType": "contract IStrategy"
        }
      ],
      "outputs": [
        {
          "name": "",
          "type": "uint256",
          "internalType": "uint256"
        }
      ],
      "stateMutability": "view"
    },
    {
      "type": "function",
      "name": "transferOwnership",
      "inputs": [
        {
          "name": "newOwner",
          "type": "address",
          "internalType": "address"
        }
      ],
      "outputs": [],
      "stateMutability": "nonpayable"
    },
    {
      "type": "function",
      "name": "undelegate",
      "inputs": [
        {
          "name": "staker",
          "type": "address",
          "internalType": "address"
        }
      ],
      "outputs": [
        {
          "name": "withdrawalRoots",
          "type": "bytes32[]",
          "internalType": "bytes32[]"
        }
      ],
      "stateMutability": "nonpayable"
    },
    {
      "type": "function",
      "name": "unpause",
      "inputs": [
        {
          "name": "newPausedStatus",
          "type": "uint256",
          "internalType": "uint256"
        }
      ],
      "outputs": [],
      "stateMutability": "nonpayable"
    },
    {
      "type": "function",
      "name": "updateOperatorMetadataURI",
      "inputs": [
        {
          "name": "metadataURI",
          "type": "string",
          "internalType": "string"
        }
      ],
      "outputs": [],
      "stateMutability": "nonpayable"
    },
    {
      "type": "event",
      "name": "Initialized",
      "inputs": [
        {
          "name": "version",
          "type": "uint8",
          "indexed": false,
          "internalType": "uint8"
        }
      ],
      "anonymous": false
    },
    {
      "type": "event",
      "name": "MinWithdrawalDelayBlocksSet",
      "inputs": [
        {
          "name": "previousValue",
          "type": "uint256",
          "indexed": false,
          "internalType": "uint256"
        },
        {
          "name": "newValue",
          "type": "uint256",
          "indexed": false,
          "internalType": "uint256"
        }
      ],
      "anonymous": false
    },
    {
      "type": "event",
      "name": "OperatorDetailsModified",
      "inputs": [
        {
          "name": "operator",
          "type": "address",
          "indexed": true,
          "internalType": "address"
        },
        {
          "name": "newOperatorDetails",
          "type": "tuple",
          "indexed": false,
          "internalType": "struct IDelegationManager.OperatorDetails",
          "components": [
            {
              "name": "earningsReceiver",
              "type": "address",
              "internalType": "address"
            },
            {
              "name": "delegationApprover",
              "type": "address",
              "internalType": "address"
            },
            {
              "name": "stakerOptOutWindowBlocks",
              "type": "uint32",
              "internalType": "uint32"
            }
          ]
        }
      ],
      "anonymous": false
    },
    {
      "type": "event",
      "name": "OperatorMetadataURIUpdated",
      "inputs": [
        {
          "name": "operator",
          "type": "address",
          "indexed": true,
          "internalType": "address"
        },
        {
          "name": "metadataURI",
          "type": "string",
          "indexed": false,
          "internalType": "string"
        }
      ],
      "anonymous": false
    },
    {
      "type": "event",
      "name": "OperatorRegistered",
      "inputs": [
        {
          "name": "operator",
          "type": "address",
          "indexed": true,
          "internalType": "address"
        },
        {
          "name": "operatorDetails",
          "type": "tuple",
          "indexed": false,
          "internalType": "struct IDelegationManager.OperatorDetails",
          "components": [
            {
              "name": "earningsReceiver",
              "type": "address",
              "internalType": "address"
            },
            {
              "name": "delegationApprover",
              "type": "address",
              "internalType": "address"
            },
            {
              "name": "stakerOptOutWindowBlocks",
              "type": "uint32",
              "internalType": "uint32"
            }
          ]
        }
      ],
      "anonymous": false
    },
    {
      "type": "event",
      "name": "OperatorSharesDecreased",
      "inputs": [
        {
          "name": "operator",
          "type": "address",
          "indexed": true,
          "internalType": "address"
        },
        {
          "name": "staker",
          "type": "address",
          "indexed": false,
          "internalType": "address"
        },
        {
          "name": "strategy",
          "type": "address",
          "indexed": false,
          "internalType": "contract IStrategy"
        },
        {
          "name": "shares",
          "type": "uint256",
          "indexed": false,
          "internalType": "uint256"
        }
      ],
      "anonymous": false
    },
    {
      "type": "event",
      "name": "OperatorSharesIncreased",
      "inputs": [
        {
          "name": "operator",
          "type": "address",
          "indexed": true,
          "internalType": "address"
        },
        {
          "name": "staker",
          "type": "address",
          "indexed": false,
          "internalType": "address"
        },
        {
          "name": "strategy",
          "type": "address",
          "indexed": false,
          "internalType": "contract IStrategy"
        },
        {
          "name": "shares",
          "type": "uint256",
          "indexed": false,
          "internalType": "uint256"
        }
      ],
      "anonymous": false
    },
    {
      "type": "event",
      "name": "OwnershipTransferred",
      "inputs": [
        {
          "name": "previousOwner",
          "type": "address",
          "indexed": true,
          "internalType": "address"
        },
        {
          "name": "newOwner",
          "type": "address",
          "indexed": true,
          "internalType": "address"
        }
      ],
      "anonymous": false
    },
    {
      "type": "event",
      "name": "Paused",
      "inputs": [
        {
          "name": "account",
          "type": "address",
          "indexed": true,
          "internalType": "address"
        },
        {
          "name": "newPausedStatus",
          "type": "uint256",
          "indexed": false,
          "internalType": "uint256"
        }
      ],
      "anonymous": false
    },
    {
      "type": "event",
      "name": "PauserRegistrySet",
      "inputs": [
        {
          "name": "pauserRegistry",
          "type": "address",
          "indexed": false,
          "internalType": "contract IPauserRegistry"
        },
        {
          "name": "newPauserRegistry",
          "type": "address",
          "indexed": false,
          "internalType": "contract IPauserRegistry"
        }
      ],
      "anonymous": false
    },
    {
      "type": "event",
      "name": "StakerDelegated",
      "inputs": [
        {
          "name": "staker",
          "type": "address",
          "indexed": true,
          "internalType": "address"
        },
        {
          "name": "operator",
          "type": "address",
          "indexed": true,
          "internalType": "address"
        }
      ],
      "anonymous": false
    },
    {
      "type": "event",
      "name": "StakerForceUndelegated",
      "inputs": [
        {
          "name": "staker",
          "type": "address",
          "indexed": true,
          "internalType": "address"
        },
        {
          "name": "operator",
          "type": "address",
          "indexed": true,
          "internalType": "address"
        }
      ],
      "anonymous": false
    },
    {
      "type": "event",
      "name": "StakerUndelegated",
      "inputs": [
        {
          "name": "staker",
          "type": "address",
          "indexed": true,
          "internalType": "address"
        },
        {
          "name": "operator",
          "type": "address",
          "indexed": true,
          "internalType": "address"
        }
      ],
      "anonymous": false
    },
    {
      "type": "event",
      "name": "StrategyWithdrawalDelayBlocksSet",
      "inputs": [
        {
          "name": "strategy",
          "type": "address",
          "indexed": false,
          "internalType": "contract IStrategy"
        },
        {
          "name": "previousValue",
          "type": "uint256",
          "indexed": false,
          "internalType": "uint256"
        },
        {
          "name": "newValue",
          "type": "uint256",
          "indexed": false,
          "internalType": "uint256"
        }
      ],
      "anonymous": false
    },
    {
      "type": "event",
      "name": "Unpaused",
      "inputs": [
        {
          "name": "account",
          "type": "address",
          "indexed": true,
          "internalType": "address"
        },
        {
          "name": "newPausedStatus",
          "type": "uint256",
          "indexed": false,
          "internalType": "uint256"
        }
      ],
      "anonymous": false
    },
    {
      "type": "event",
      "name": "WithdrawalCompleted",
      "inputs": [
        {
          "name": "withdrawalRoot",
          "type": "bytes32",
          "indexed": false,
          "internalType": "bytes32"
        }
      ],
      "anonymous": false
    },
    {
      "type": "event",
      "name": "WithdrawalMigrated",
      "inputs": [
        {
          "name": "oldWithdrawalRoot",
          "type": "bytes32",
          "indexed": false,
          "internalType": "bytes32"
        },
        {
          "name": "newWithdrawalRoot",
          "type": "bytes32",
          "indexed": false,
          "internalType": "bytes32"
        }
      ],
      "anonymous": false
    },
    {
      "type": "event",
      "name": "WithdrawalQueued",
      "inputs": [
        {
          "name": "withdrawalRoot",
          "type": "bytes32",
          "indexed": false,
          "internalType": "bytes32"
        },
        {
          "name": "withdrawal",
          "type": "tuple",
          "indexed": false,
          "internalType": "struct IDelegationManager.Withdrawal",
          "components": [
            {
              "name": "staker",
              "type": "address",
              "internalType": "address"
            },
            {
              "name": "delegatedTo",
              "type": "address",
              "internalType": "address"
            },
            {
              "name": "withdrawer",
              "type": "address",
              "internalType": "address"
            },
            {
              "name": "nonce",
              "type": "uint256",
              "internalType": "uint256"
            },
            {
              "name": "startBlock",
              "type": "uint32",
              "internalType": "uint32"
            },
            {
              "name": "strategies",
              "type": "address[]",
              "internalType": "contract IStrategy[]"
            },
            {
              "name": "shares",
              "type": "uint256[]",
              "internalType": "uint256[]"
            }
          ]
        }
      ],
      "anonymous": false
    }
  ],
  "bytecode": {
    "object": "0x6101006040523480156200001257600080fd5b506040516200618138038062006181833981016040819052620000359162000140565b6001600160a01b0380841660805280821660c052821660a0526200005862000065565b50504660e0525062000194565b600054610100900460ff1615620000d25760405162461bcd60e51b815260206004820152602760248201527f496e697469616c697a61626c653a20636f6e747261637420697320696e697469604482015266616c697a696e6760c81b606482015260840160405180910390fd5b60005460ff908116101562000125576000805460ff191660ff9081179091556040519081527f7f26b83ff96e1f2b6a682f133852f6798a09c465da95921460cefb38474024989060200160405180910390a15b565b6001600160a01b03811681146200013d57600080fd5b50565b6000806000606084860312156200015657600080fd5b8351620001638162000127565b6020850151909350620001768162000127565b6040850151909250620001898162000127565b809150509250925092565b60805160a05160c05160e051615f516200023060003960006127790152600081816105e7015281816110ae0152818161142a01528181611e0d01528181612ad2015281816141390152614625015260006107d701526000818161052f0152818161107c015281816113f80152818161172001528181611ea101528181612b9f01528181612d220152818161425f01526146cb0152615f516000f3fe608060405234801561001057600080fd5b50600436106103785760003560e01c806360d7faed116101d3578063b7f06ebe11610104578063cf80873e116100a2578063f16172b01161007c578063f16172b01461097d578063f2fde38b14610990578063f698da25146109a3578063fabc1cbc146109ab57600080fd5b8063cf80873e14610936578063da8be86414610957578063eea9064b1461096a57600080fd5b8063c488375a116100de578063c488375a14610853578063c5e480db14610873578063c94b511114610919578063ca661c041461092c57600080fd5b8063b7f06ebe146107f9578063bb45fef21461081c578063c448feb81461084a57600080fd5b8063886f1195116101715780639104c3191161014b5780639104c3191461078457806399be81c81461079f578063a1788484146107b2578063b1344271146107d257600080fd5b8063886f1195146107405780638da5cb5b14610753578063900413471461076457600080fd5b80636d70f7ae116101ad5780636d70f7ae146106e7578063715018a6146106fa578063778e55f3146107025780637f5480711461072d57600080fd5b806360d7faed14610698578063635bbd10146106ab57806365da1264146106be57600080fd5b806329c77d4f116102ad5780634fc40b611161024b5780635ac86ab7116102255780635ac86ab71461062e5780635c975abb146106515780635cfe8d2c146106595780635f966f141461066c57600080fd5b80634fc40b6114610609578063595c6a6714610613578063597b36da1461061b57600080fd5b80633cdeb5e0116102875780633cdeb5e0146105695780633e28391d1461059857806343377382146105bb5780634665bcda146105e257600080fd5b806329c77d4f146104f7578063334043961461051757806339b70e381461052a57600080fd5b8063136439dd1161031a5780631bbce091116102f45780631bbce0911461049757806320606b70146104aa57806322bf40e4146104d157806328a573ae146104e457600080fd5b8063136439dd146104385780631522bf021461044b578063169283651461045e57600080fd5b80630dd8dd02116103565780630dd8dd02146103dd5780630f589e59146103fd57806310d67a2f14610412578063132d49671461042557600080fd5b80630449ca391461037d57806304a4f979146103a35780630b9f487a146103ca575b600080fd5b61039061038b366004614adb565b6109be565b6040519081526020015b60405180910390f35b6103907f14bde674c9f64b2ad00eaaee4a8bed1fabef35c7507e3c5b9cfc9436909a2dad81565b6103906103d8366004614b41565b610a43565b6103f06103eb366004614adb565b610b05565b60405161039a9190614b9c565b61041061040b366004614c39565b610e6e565b005b610410610420366004614c8c565b610fbe565b610410610433366004614cb0565b611071565b610410610446366004614cf1565b611128565b610410610459366004614d0a565b611267565b61039061046c366004614c8c565b6001600160a01b0316600090815260996020526040902060010154600160a01b900463ffffffff1690565b6103906104a5366004614cb0565b61127b565b6103907f8cad95687ba82c2ce50e74f7b754645e5117c3a5bec8151c0726d5857980a86681565b6104106104df366004614d75565b6112a9565b6104106104f2366004614cb0565b6113ed565b610390610505366004614c8c565b609b6020526000908152604090205481565b610410610525366004614e1c565b61149d565b6105517f000000000000000000000000000000000000000000000000000000000000000081565b6040516001600160a01b03909116815260200161039a565b610551610577366004614c8c565b6001600160a01b039081166000908152609960205260409020600101541690565b6105ab6105a6366004614c8c565b6115da565b604051901515815260200161039a565b6103907f39111bc4a4d688e1f685123d7497d4615370152a8ee4a0593e647bd06ad8bb0b81565b6105517f000000000000000000000000000000000000000000000000000000000000000081565b6103906213c68081565b6104106115fa565b61039061062936600461513b565b6116c1565b6105ab61063c366004615177565b606654600160ff9092169190911b9081161490565b606654610390565b6104106106673660046151ed565b6116f1565b61055161067a366004614c8c565b6001600160a01b039081166000908152609960205260409020541690565b6104106106a636600461534d565b61199c565b6104106106b9366004614cf1565b611a37565b6105516106cc366004614c8c565b609a602052600090815260409020546001600160a01b031681565b6105ab6106f5366004614c8c565b611a48565b610410611a68565b6103906107103660046153dc565b609860209081526000928352604080842090915290825290205481565b61041061073b3660046154bd565b611a7c565b606554610551906001600160a01b031681565b6033546001600160a01b0316610551565b61077761077236600461554d565b611b81565b60405161039a91906155d7565b61055173beac0eeeeeeeeeeeeeeeeeeeeeeeeeeeeeebeac081565b6104106107ad3660046155ea565b611c5b565b6103906107c0366004614c8c565b609f6020526000908152604090205481565b6105517f000000000000000000000000000000000000000000000000000000000000000081565b6105ab610807366004614cf1565b609e6020526000908152604090205460ff1681565b6105ab61082a36600461561f565b609c60209081526000928352604080842090915290825290205460ff1681565b610390609d5481565b610390610861366004614c8c565b60a16020526000908152604090205481565b6108e3610881366004614c8c565b6040805160608082018352600080835260208084018290529284018190526001600160a01b03948516815260998352839020835191820184528054851682526001015493841691810191909152600160a01b90920463ffffffff169082015290565b6040805182516001600160a01b039081168252602080850151909116908201529181015163ffffffff169082015260600161039a565b61039061092736600461564b565b611d2d565b61039062034bc081565b610949610944366004614c8c565b611de6565b60405161039a9291906156cc565b6103f0610965366004614c8c565b61219e565b6104106109783660046156f1565b612662565b61041061098b366004615749565b61266e565b61041061099e366004614c8c565b6126ff565b610390612775565b6104106109b9366004614cf1565b6127b3565b609d54600090815b83811015610a3b57600060a160008787858181106109e6576109e6615765565b90506020020160208101906109fb9190614c8c565b6001600160a01b03166001600160a01b0316815260200190815260200160002054905082811115610a2a578092505b50610a3481615791565b90506109c6565b509392505050565b604080517f14bde674c9f64b2ad00eaaee4a8bed1fabef35c7507e3c5b9cfc9436909a2dad6020808301919091526001600160a01b038681168385015288811660608401528716608083015260a0820185905260c08083018590528351808403909101815260e0909201909252805191012060009081610ac1612775565b60405161190160f01b602082015260228101919091526042810183905260620160408051808303601f19018152919052805160209091012098975050505050505050565b60665460609060019060029081161415610b3a5760405162461bcd60e51b8152600401610b31906157ac565b60405180910390fd5b6000836001600160401b03811115610b5457610b54614ebe565b604051908082528060200260200182016040528015610b7d578160200160208202803683370190505b50336000908152609a60205260408120549192506001600160a01b03909116905b85811015610e6357868682818110610bb857610bb8615765565b9050602002810190610bca91906157e3565b610bd8906020810190615803565b9050878783818110610bec57610bec615765565b9050602002810190610bfe91906157e3565b610c089080615803565b905014610c7d5760405162461bcd60e51b815260206004820152603860248201527f44656c65676174696f6e4d616e616765722e717565756557697468647261776160448201527f6c3a20696e707574206c656e677468206d69736d6174636800000000000000006064820152608401610b31565b33878783818110610c9057610c90615765565b9050602002810190610ca291906157e3565b610cb3906060810190604001614c8c565b6001600160a01b031614610d2f5760405162461bcd60e51b815260206004820152603c60248201527f44656c65676174696f6e4d616e616765722e717565756557697468647261776160448201527f6c3a2077697468647261776572206d757374206265207374616b6572000000006064820152608401610b31565b610e343383898985818110610d4657610d46615765565b9050602002810190610d5891906157e3565b610d69906060810190604001614c8c565b8a8a86818110610d7b57610d7b615765565b9050602002810190610d8d91906157e3565b610d979080615803565b808060200260200160405190810160405280939291908181526020018383602002808284376000920191909152508e92508d9150889050818110610ddd57610ddd615765565b9050602002810190610def91906157e3565b610dfd906020810190615803565b8080602002602001604051908101604052809392919081815260200183836020028082843760009201919091525061290f92505050565b838281518110610e4657610e46615765565b602090810291909101015280610e5b81615791565b915050610b9e565b509095945050505050565b336000908152609960205260409020546001600160a01b031615610f085760405162461bcd60e51b815260206004820152604560248201527f44656c65676174696f6e4d616e616765722e726567697374657241734f70657260448201527f61746f723a206f70657261746f722068617320616c72656164792072656769736064820152641d195c995960da1b608482015260a401610b31565b610f123384612ecf565b604080518082019091526060815260006020820152610f34338083600061316b565b336001600160a01b03167f8e8485583a2310d41f7c82b9427d0bd49bad74bb9cff9d3402a29d8f9b28a0e285604051610f6d919061584c565b60405180910390a2336001600160a01b03167f02a919ed0e2acad1dd90f17ef2fa4ae5462ee1339170034a8531cca4b67080908484604051610fb092919061589e565b60405180910390a250505050565b606560009054906101000a90046001600160a01b03166001600160a01b031663eab66d7a6040518163ffffffff1660e01b8152600401602060405180830381865afa158015611011573d6000803e3d6000fd5b505050506040513d601f19601f8201168201806040525081019061103591906158cd565b6001600160a01b0316336001600160a01b0316146110655760405162461bcd60e51b8152600401610b31906158ea565b61106e81613510565b50565b336001600160a01b037f00000000000000000000000000000000000000000000000000000000000000001614806110d05750336001600160a01b037f000000000000000000000000000000000000000000000000000000000000000016145b6110ec5760405162461bcd60e51b8152600401610b3190615934565b6110f5836115da565b15611123576001600160a01b038084166000908152609a60205260409020541661112181858585613607565b505b505050565b60655460405163237dfb4760e11b81523360048201526001600160a01b03909116906346fbf68e90602401602060405180830381865afa158015611170573d6000803e3d6000fd5b505050506040513d601f19601f820116820180604052508101906111949190615991565b6111b05760405162461bcd60e51b8152600401610b31906159ae565b606654818116146112295760405162461bcd60e51b815260206004820152603860248201527f5061757361626c652e70617573653a20696e76616c696420617474656d70742060448201527f746f20756e70617573652066756e6374696f6e616c69747900000000000000006064820152608401610b31565b606681905560405181815233907fab40a374bc51de372200a8bc981af8c9ecdc08dfdaef0bb6e09f88f3c616ef3d906020015b60405180910390a250565b61126f613682565b611121848484846136dc565b6001600160a01b0383166000908152609b60205260408120546112a085828686611d2d565b95945050505050565b600054610100900460ff16158080156112c95750600054600160ff909116105b806112e35750303b1580156112e3575060005460ff166001145b6113465760405162461bcd60e51b815260206004820152602e60248201527f496e697469616c697a61626c653a20636f6e747261637420697320616c72656160448201526d191e481a5b9a5d1a585b1a5e995960921b6064820152608401610b31565b6000805460ff191660011790558015611369576000805461ff0019166101001790555b6113738888613902565b61137b6139e8565b60975561138789613a7f565b61139086613ad1565b61139c858585856136dc565b80156113e2576000805461ff0019169055604051600181527f7f26b83ff96e1f2b6a682f133852f6798a09c465da95921460cefb38474024989060200160405180910390a15b505050505050505050565b336001600160a01b037f000000000000000000000000000000000000000000000000000000000000000016148061144c5750336001600160a01b037f000000000000000000000000000000000000000000000000000000000000000016145b6114685760405162461bcd60e51b8152600401610b3190615934565b611471836115da565b15611123576001600160a01b038084166000908152609a60205260409020541661112181858585613bcb565b606654600290600490811614156114c65760405162461bcd60e51b8152600401610b31906157ac565b600260c95414156115195760405162461bcd60e51b815260206004820152601f60248201527f5265656e7472616e637947756172643a207265656e7472616e742063616c6c006044820152606401610b31565b600260c95560005b888110156115c9576115b98a8a8381811061153e5761153e615765565b905060200281019061155091906159f6565b89898481811061156257611562615765565b90506020028101906115749190615803565b89898681811061158657611586615765565b9050602002013588888781811061159f5761159f615765565b90506020020160208101906115b49190615a0c565b613c46565b6115c281615791565b9050611521565b5050600160c9555050505050505050565b6001600160a01b039081166000908152609a602052604090205416151590565b60655460405163237dfb4760e11b81523360048201526001600160a01b03909116906346fbf68e90602401602060405180830381865afa158015611642573d6000803e3d6000fd5b505050506040513d601f19601f820116820180604052508101906116669190615991565b6116825760405162461bcd60e51b8152600401610b31906159ae565b600019606681905560405190815233907fab40a374bc51de372200a8bc981af8c9ecdc08dfdaef0bb6e09f88f3c616ef3d9060200160405180910390a2565b6000816040516020016116d49190615a9d565b604051602081830303815290604052805190602001209050919050565b60005b815181101561199857600082828151811061171157611711615765565b602002602001015190506000807f00000000000000000000000000000000000000000000000000000000000000006001600160a01b031663cd293f6f846040518263ffffffff1660e01b815260040161176a9190615ab0565b60408051808303816000875af1158015611788573d6000803e3d6000fd5b505050506040513d601f19601f820116820180604052508101906117ac9190615b5c565b91509150811561198a576040808401516001600160a01b0381166000908152609f602052918220805491928291906117e383615791565b919050555060006040518060e00160405280846001600160a01b031681526020018760a001516001600160a01b031681526020018760600151600001516001600160a01b03168152602001838152602001876080015163ffffffff16815260200187600001518152602001876020015181525090506000611863826116c1565b6000818152609e602052604090205490915060ff16156118f95760405162461bcd60e51b815260206004820152604560248201527f44656c65676174696f6e4d616e616765722e6d6967726174655175657565645760448201527f69746864726177616c733a207769746864726177616c20616c72656164792065606482015264786973747360d81b608482015260a401610b31565b6000818152609e602052604090819020805460ff19166001179055517f9009ab153e8014fbfb02f2217f5cde7aa7f9ad734ae85ca3ee3f4ca2fdd499f9906119449083908590615b8a565b60405180910390a160408051868152602081018390527fdc00758b65eef71dc3780c04ebe36cab6bdb266c3a698187e29e0f0dca012630910160405180910390a1505050505b8360010193505050506116f4565b5050565b606654600290600490811614156119c55760405162461bcd60e51b8152600401610b31906157ac565b600260c9541415611a185760405162461bcd60e51b815260206004820152601f60248201527f5265656e7472616e637947756172643a207265656e7472616e742063616c6c006044820152606401610b31565b600260c955611a2a8686868686613c46565b5050600160c95550505050565b611a3f613682565b61106e81613ad1565b6001600160a01b0390811660009081526099602052604090205416151590565b611a70613682565b611a7a6000613a7f565b565b4283602001511015611b005760405162461bcd60e51b815260206004820152604160248201527f44656c65676174696f6e4d616e616765722e64656c6567617465546f4279536960448201527f676e61747572653a207374616b6572207369676e6174757265206578706972656064820152601960fa1b608482015260a401610b31565b6000609b6000876001600160a01b03166001600160a01b031681526020019081526020016000205490506000611b3c8783888860200151611d2d565b6001600160a01b0388166000908152609b602052604090206001840190558551909150611b6c9088908390614430565b611b788787868661316b565b50505050505050565b6060600082516001600160401b03811115611b9e57611b9e614ebe565b604051908082528060200260200182016040528015611bc7578160200160208202803683370190505b50905060005b8351811015610a3b576001600160a01b03851660009081526098602052604081208551909190869084908110611c0557611c05615765565b60200260200101516001600160a01b03166001600160a01b0316815260200190815260200160002054828281518110611c4057611c40615765565b6020908102919091010152611c5481615791565b9050611bcd565b611c6433611a48565b611ce65760405162461bcd60e51b815260206004820152604760248201527f44656c65676174696f6e4d616e616765722e7570646174654f70657261746f7260448201527f4d657461646174615552493a2063616c6c6572206d75737420626520616e206f6064820152663832b930ba37b960c91b608482015260a401610b31565b336001600160a01b03167f02a919ed0e2acad1dd90f17ef2fa4ae5462ee1339170034a8531cca4b67080908383604051611d2192919061589e565b60405180910390a25050565b604080517f39111bc4a4d688e1f685123d7497d4615370152a8ee4a0593e647bd06ad8bb0b6020808301919091526001600160a01b0387811683850152851660608301526080820186905260a08083018590528351808403909101815260c0909201909252805191012060009081611da3612775565b60405161190160f01b602082015260228101919091526042810183905260620160408051808303601f190181529190528051602090910120979650505050505050565b6040516360f4062b60e01b81526001600160a01b03828116600483015260609182916000917f0000000000000000000000000000000000000000000000000000000000000000909116906360f4062b90602401602060405180830381865afa158015611e56573d6000803e3d6000fd5b505050506040513d601f19601f82011682018060405250810190611e7a9190615ba3565b6040516394f649dd60e01b81526001600160a01b03868116600483015291925060009182917f0000000000000000000000000000000000000000000000000000000000000000909116906394f649dd90602401600060405180830381865afa158015611eea573d6000803e3d6000fd5b505050506040513d6000823e601f3d908101601f19168201604052611f129190810190615c17565b9150915060008313611f2957909590945092505050565b606080835160001415611fe3576040805160018082528183019092529060208083019080368337505060408051600180825281830190925292945090506020808301908036833701905050905073beac0eeeeeeeeeeeeeeeeeeeeeeeeeeeeeebeac082600081518110611f9e57611f9e615765565b60200260200101906001600160a01b031690816001600160a01b0316815250508481600081518110611fd257611fd2615765565b602002602001018181525050612191565b8351611ff0906001615cd1565b6001600160401b0381111561200757612007614ebe565b604051908082528060200260200182016040528015612030578160200160208202803683370190505b50915081516001600160401b0381111561204c5761204c614ebe565b604051908082528060200260200182016040528015612075578160200160208202803683370190505b50905060005b845181101561210f5784818151811061209657612096615765565b60200260200101518382815181106120b0576120b0615765565b60200260200101906001600160a01b031690816001600160a01b0316815250508381815181106120e2576120e2615765565b60200260200101518282815181106120fc576120fc615765565b602090810291909101015260010161207b565b5073beac0eeeeeeeeeeeeeeeeeeeeeeeeeeeeeebeac082600184516121349190615ce9565b8151811061214457612144615765565b60200260200101906001600160a01b031690816001600160a01b0316815250508481600184516121749190615ce9565b8151811061218457612184615765565b6020026020010181815250505b9097909650945050505050565b606654606090600190600290811614156121ca5760405162461bcd60e51b8152600401610b31906157ac565b6121d3836115da565b6122535760405162461bcd60e51b8152602060048201526044602482018190527f44656c65676174696f6e4d616e616765722e756e64656c65676174653a207374908201527f616b6572206d7573742062652064656c65676174656420746f20756e64656c656064820152636761746560e01b608482015260a401610b31565b61225c83611a48565b156122cf5760405162461bcd60e51b815260206004820152603d60248201527f44656c65676174696f6e4d616e616765722e756e64656c65676174653a206f7060448201527f657261746f72732063616e6e6f7420626520756e64656c6567617465640000006064820152608401610b31565b6001600160a01b03831661234b5760405162461bcd60e51b815260206004820152603c60248201527f44656c65676174696f6e4d616e616765722e756e64656c65676174653a20636160448201527f6e6e6f7420756e64656c6567617465207a65726f2061646472657373000000006064820152608401610b31565b6001600160a01b038084166000818152609a60205260409020549091169033148061237e5750336001600160a01b038216145b806123a557506001600160a01b038181166000908152609960205260409020600101541633145b6124175760405162461bcd60e51b815260206004820152603d60248201527f44656c65676174696f6e4d616e616765722e756e64656c65676174653a20636160448201527f6c6c65722063616e6e6f7420756e64656c6567617465207374616b65720000006064820152608401610b31565b60008061242386611de6565b9092509050336001600160a01b0387161461247957826001600160a01b0316866001600160a01b03167ff0eddf07e6ea14f388b47e1e94a0f464ecbd9eed4171130e0fc0e99fb4030a8a60405160405180910390a35b826001600160a01b0316866001600160a01b03167ffee30966a256b71e14bc0ebfc94315e28ef4a97a7131a9e2b7a310a73af4467660405160405180910390a36001600160a01b0386166000908152609a6020526040902080546001600160a01b031916905581516124fb576040805160008152602081019091529450612659565b81516001600160401b0381111561251457612514614ebe565b60405190808252806020026020018201604052801561253d578160200160208202803683370190505b50945060005b8251811015612657576040805160018082528183019092526000916020808301908036833750506040805160018082528183019092529293506000929150602080830190803683370190505090508483815181106125a3576125a3615765565b6020026020010151826000815181106125be576125be615765565b60200260200101906001600160a01b031690816001600160a01b0316815250508383815181106125f0576125f0615765565b60200260200101518160008151811061260b5761260b615765565b60200260200101818152505061262489878b858561290f565b88848151811061263657612636615765565b6020026020010181815250505050808061264f90615791565b915050612543565b505b50505050919050565b6111233384848461316b565b61267733611a48565b6126f55760405162461bcd60e51b815260206004820152604360248201527f44656c65676174696f6e4d616e616765722e6d6f646966794f70657261746f7260448201527f44657461696c733a2063616c6c6572206d75737420626520616e206f706572616064820152623a37b960e91b608482015260a401610b31565b61106e3382612ecf565b612707613682565b6001600160a01b03811661276c5760405162461bcd60e51b815260206004820152602660248201527f4f776e61626c653a206e6577206f776e657220697320746865207a65726f206160448201526564647265737360d01b6064820152608401610b31565b61106e81613a7f565b60007f00000000000000000000000000000000000000000000000000000000000000004614156127a6575060975490565b6127ae6139e8565b905090565b606560009054906101000a90046001600160a01b03166001600160a01b031663eab66d7a6040518163ffffffff1660e01b8152600401602060405180830381865afa158015612806573d6000803e3d6000fd5b505050506040513d601f19601f8201168201806040525081019061282a91906158cd565b6001600160a01b0316336001600160a01b03161461285a5760405162461bcd60e51b8152600401610b31906158ea565b6066541981196066541916146128d85760405162461bcd60e51b815260206004820152603860248201527f5061757361626c652e756e70617573653a20696e76616c696420617474656d7060448201527f7420746f2070617573652066756e6374696f6e616c69747900000000000000006064820152608401610b31565b606681905560405181815233907f3582d1828e26bf56bd801502bc021ac0bc8afb57c826e4986b45593c8fad389c9060200161125c565b60006001600160a01b0386166129a65760405162461bcd60e51b815260206004820152605060248201527f44656c65676174696f6e4d616e616765722e5f72656d6f76655368617265734160448201527f6e6451756575655769746864726177616c3a207374616b65722063616e6e6f7460648201526f206265207a65726f206164647265737360801b608482015260a401610b31565b8251612a305760405162461bcd60e51b815260206004820152604d60248201527f44656c65676174696f6e4d616e616765722e5f72656d6f76655368617265734160448201527f6e6451756575655769746864726177616c3a207374726174656769657320636160648201526c6e6e6f7420626520656d70747960981b608482015260a401610b31565b60005b8351811015612ddd576001600160a01b03861615612a8957612a898688868481518110612a6257612a62615765565b6020026020010151868581518110612a7c57612a7c615765565b6020026020010151613607565b73beac0eeeeeeeeeeeeeeeeeeeeeeeeeeeeeebeac06001600160a01b0316848281518110612ab957612ab9615765565b60200260200101516001600160a01b03161415612b82577f00000000000000000000000000000000000000000000000000000000000000006001600160a01b031663beffbb8988858481518110612b1257612b12615765565b60200260200101516040518363ffffffff1660e01b8152600401612b4b9291906001600160a01b03929092168252602082015260400190565b600060405180830381600087803b158015612b6557600080fd5b505af1158015612b79573d6000803e3d6000fd5b50505050612dd5565b846001600160a01b0316876001600160a01b03161480612c5457507f00000000000000000000000000000000000000000000000000000000000000006001600160a01b0316639b4da03d858381518110612bde57612bde615765565b60200260200101516040518263ffffffff1660e01b8152600401612c1191906001600160a01b0391909116815260200190565b602060405180830381865afa158015612c2e573d6000803e3d6000fd5b505050506040513d601f19601f82011682018060405250810190612c529190615991565b155b612d205760405162461bcd60e51b8152602060048201526084602482018190527f44656c65676174696f6e4d616e616765722e5f72656d6f76655368617265734160448301527f6e6451756575655769746864726177616c3a2077697468647261776572206d7560648301527f73742062652073616d652061646472657373206173207374616b657220696620908201527f746869726450617274795472616e7366657273466f7262696464656e2061726560a482015263081cd95d60e21b60c482015260e401610b31565b7f00000000000000000000000000000000000000000000000000000000000000006001600160a01b0316638c80d4e588868481518110612d6257612d62615765565b6020026020010151868581518110612d7c57612d7c615765565b60200260200101516040518463ffffffff1660e01b8152600401612da293929190615d00565b600060405180830381600087803b158015612dbc57600080fd5b505af1158015612dd0573d6000803e3d6000fd5b505050505b600101612a33565b506001600160a01b0386166000908152609f60205260408120805491829190612e0583615791565b919050555060006040518060e00160405280896001600160a01b03168152602001886001600160a01b03168152602001876001600160a01b031681526020018381526020014363ffffffff1681526020018681526020018581525090506000612e6d826116c1565b6000818152609e602052604090819020805460ff19166001179055519091507f9009ab153e8014fbfb02f2217f5cde7aa7f9ad734ae85ca3ee3f4ca2fdd499f990612ebb9083908590615b8a565b60405180910390a198975050505050505050565b6000612ede6020830183614c8c565b6001600160a01b03161415612f785760405162461bcd60e51b815260206004820152605460248201527f44656c65676174696f6e4d616e616765722e5f7365744f70657261746f72446560448201527f7461696c733a2063616e6e6f742073657420606561726e696e677352656365696064820152737665726020746f207a65726f206164647265737360601b608482015260a401610b31565b6213c680612f8c6060830160408401615d24565b63ffffffff1611156130415760405162461bcd60e51b815260206004820152606c60248201527f44656c65676174696f6e4d616e616765722e5f7365744f70657261746f72446560448201527f7461696c733a207374616b65724f70744f757457696e646f77426c6f636b732060648201527f63616e6e6f74206265203e204d41585f5354414b45525f4f50545f4f55545f5760848201526b494e444f575f424c4f434b5360a01b60a482015260c401610b31565b6001600160a01b0382166000908152609960205260409081902060010154600160a01b900463ffffffff169061307d9060608401908401615d24565b63ffffffff1610156131135760405162461bcd60e51b815260206004820152605360248201527f44656c65676174696f6e4d616e616765722e5f7365744f70657261746f72446560448201527f7461696c733a207374616b65724f70744f757457696e646f77426c6f636b732060648201527218d85b9b9bdd08189948191958dc99585cd959606a1b608482015260a401610b31565b6001600160a01b038216600090815260996020526040902081906131378282615d61565b505060405133907ffebe5cd24b2cbc7b065b9d0fdeb904461e4afcff57dd57acda1e7832031ba7ac90611d2190849061584c565b606654600090600190811614156131945760405162461bcd60e51b8152600401610b31906157ac565b61319d856115da565b1561321a5760405162461bcd60e51b815260206004820152604160248201527f44656c65676174696f6e4d616e616765722e5f64656c65676174653a2073746160448201527f6b657220697320616c7265616479206163746976656c792064656c65676174656064820152601960fa1b608482015260a401610b31565b61322384611a48565b6132a35760405162461bcd60e51b815260206004820152604560248201527f44656c65676174696f6e4d616e616765722e5f64656c65676174653a206f706560448201527f7261746f72206973206e6f74207265676973746572656420696e20456967656e6064820152642630bcb2b960d91b608482015260a401610b31565b6001600160a01b038085166000908152609960205260409020600101541680158015906132d95750336001600160a01b03821614155b80156132ee5750336001600160a01b03861614155b1561345b57428460200151101561336d5760405162461bcd60e51b815260206004820152603760248201527f44656c65676174696f6e4d616e616765722e5f64656c65676174653a2061707060448201527f726f766572207369676e617475726520657870697265640000000000000000006064820152608401610b31565b6001600160a01b0381166000908152609c6020908152604080832086845290915290205460ff16156134075760405162461bcd60e51b815260206004820152603760248201527f44656c65676174696f6e4d616e616765722e5f64656c65676174653a2061707060448201527f726f76657253616c7420616c7265616479207370656e740000000000000000006064820152608401610b31565b6001600160a01b0381166000908152609c6020908152604080832086845282528220805460ff19166001179055850151613448908890889085908890610a43565b905061345982828760000151614430565b505b6001600160a01b038681166000818152609a602052604080822080546001600160a01b031916948a169485179055517fc3ee9f2e5fda98e8066a1f745b2df9285f416fe98cf2559cd21484b3d87433049190a36000806134ba88611de6565b9150915060005b82518110156113e257613508888a8584815181106134e1576134e1615765565b60200260200101518585815181106134fb576134fb615765565b6020026020010151613bcb565b6001016134c1565b6001600160a01b03811661359e5760405162461bcd60e51b815260206004820152604960248201527f5061757361626c652e5f73657450617573657252656769737472793a206e657760448201527f50617573657252656769737472792063616e6e6f7420626520746865207a65726064820152686f206164647265737360b81b608482015260a401610b31565b606554604080516001600160a01b03928316815291831660208301527f6e9fcd539896fca60e8b0f01dd580233e48a6b0f7df013b89ba7f565869acdb6910160405180910390a1606580546001600160a01b0319166001600160a01b0392909216919091179055565b6001600160a01b0380851660009081526098602090815260408083209386168352929052908120805483929061363e908490615ce9565b92505081905550836001600160a01b03167f6909600037b75d7b4733aedd815442b5ec018a827751c832aaff64eba5d6d2dd848484604051610fb093929190615d00565b6033546001600160a01b03163314611a7a5760405162461bcd60e51b815260206004820181905260248201527f4f776e61626c653a2063616c6c6572206973206e6f7420746865206f776e65726044820152606401610b31565b8281146137645760405162461bcd60e51b815260206004820152604a60248201527f44656c65676174696f6e4d616e616765722e5f7365745374726174656779576960448201527f746864726177616c44656c6179426c6f636b733a20696e707574206c656e67746064820152690d040dad2e6dac2e8c6d60b31b608482015260a401610b31565b8260005b818110156138fa57600086868381811061378457613784615765565b90506020020160208101906137999190614c8c565b6001600160a01b038116600090815260a160205260408120549192508686858181106137c7576137c7615765565b90506020020135905062034bc081111561388b5760405162461bcd60e51b815260206004820152607360248201527f44656c65676174696f6e4d616e616765722e5f7365745374726174656779576960448201527f746864726177616c44656c6179426c6f636b733a205f7769746864726177616c60648201527f44656c6179426c6f636b732063616e6e6f74206265203e204d41585f5749544860848201527244524157414c5f44454c41595f424c4f434b5360681b60a482015260c401610b31565b6001600160a01b038316600081815260a160209081526040918290208490558151928352820184905281018290527f0e7efa738e8b0ce6376a0c1af471655540d2e9a81647d7b09ed823018426576d9060600160405180910390a1505050806138f390615791565b9050613768565b505050505050565b6065546001600160a01b031615801561392357506001600160a01b03821615155b6139a55760405162461bcd60e51b815260206004820152604760248201527f5061757361626c652e5f696e697469616c697a655061757365723a205f696e6960448201527f7469616c697a6550617573657228292063616e206f6e6c792062652063616c6c6064820152666564206f6e636560c81b608482015260a401610b31565b606681905560405181815233907fab40a374bc51de372200a8bc981af8c9ecdc08dfdaef0bb6e09f88f3c616ef3d9060200160405180910390a261199882613510565b604080518082018252600a81526922b4b3b2b72630bcb2b960b11b60209182015281517f8cad95687ba82c2ce50e74f7b754645e5117c3a5bec8151c0726d5857980a866818301527f71b625cfad44bac63b13dba07f2e1d6084ee04b6f8752101ece6126d584ee6ea81840152466060820152306080808301919091528351808303909101815260a0909101909252815191012090565b603380546001600160a01b038381166001600160a01b0319831681179093556040519116919082907f8be0079c531659141344cd1fd0a4f28419497f9722a3daafe3b4186f6b6457e090600090a35050565b62034bc0811115613b8a5760405162461bcd60e51b815260206004820152607160248201527f44656c65676174696f6e4d616e616765722e5f7365744d696e5769746864726160448201527f77616c44656c6179426c6f636b733a205f6d696e5769746864726177616c446560648201527f6c6179426c6f636b732063616e6e6f74206265203e204d41585f5749544844526084820152704157414c5f44454c41595f424c4f434b5360781b60a482015260c401610b31565b609d5460408051918252602082018390527fafa003cd76f87ff9d62b35beea889920f33c0c42b8d45b74954d61d50f4b6b69910160405180910390a1609d55565b6001600160a01b03808516600090815260986020908152604080832093861683529290529081208054839290613c02908490615cd1565b92505081905550836001600160a01b03167f1ec042c965e2edd7107b51188ee0f383e22e76179041ab3a9d18ff151405166c848484604051610fb093929190615d00565b6000613c5461062987615dc4565b6000818152609e602052604090205490915060ff16613cd55760405162461bcd60e51b81526020600482015260436024820152600080516020615efc83398151915260448201527f645769746864726177616c3a20616374696f6e206973206e6f7420696e20717560648201526265756560e81b608482015260a401610b31565b609d544390613cea60a0890160808a01615d24565b63ffffffff16613cfa9190615cd1565b1115613d825760405162461bcd60e51b815260206004820152605f6024820152600080516020615efc83398151915260448201527f645769746864726177616c3a206d696e5769746864726177616c44656c61794260648201527f6c6f636b7320706572696f6420686173206e6f74207965742070617373656400608482015260a401610b31565b613d926060870160408801614c8c565b6001600160a01b0316336001600160a01b031614613e1f5760405162461bcd60e51b81526020600482015260506024820152600080516020615efc83398151915260448201527f645769746864726177616c3a206f6e6c7920776974686472617765722063616e60648201526f1031b7b6b83632ba329030b1ba34b7b760811b608482015260a401610b31565b8115613ea157613e3260a0870187615803565b85149050613ea15760405162461bcd60e51b81526020600482015260426024820152600080516020615efc83398151915260448201527f645769746864726177616c3a20696e707574206c656e677468206d69736d61746064820152610c6d60f31b608482015260a401610b31565b6000818152609e60205260409020805460ff1916905581156140065760005b613ecd60a0880188615803565b9050811015614000574360a16000613ee860a08b018b615803565b85818110613ef857613ef8615765565b9050602002016020810190613f0d9190614c8c565b6001600160a01b03168152602081019190915260400160002054613f3760a08a0160808b01615d24565b63ffffffff16613f479190615cd1565b1115613f655760405162461bcd60e51b8152600401610b3190615dd6565b613ff8613f756020890189614c8c565b33613f8360a08b018b615803565b85818110613f9357613f93615765565b9050602002016020810190613fa89190614c8c565b613fb560c08c018c615803565b86818110613fc557613fc5615765565b905060200201358a8a87818110613fde57613fde615765565b9050602002016020810190613ff39190614c8c565b6145ea565b600101613ec0565b506143f5565b336000908152609a60205260408120546001600160a01b0316905b61402e60a0890189615803565b90508110156143f2574360a1600061404960a08c018c615803565b8581811061405957614059615765565b905060200201602081019061406e9190614c8c565b6001600160a01b0316815260208101919091526040016000205461409860a08b0160808c01615d24565b63ffffffff166140a89190615cd1565b11156140c65760405162461bcd60e51b8152600401610b3190615dd6565b73beac0eeeeeeeeeeeeeeeeeeeeeeeeeeeeeebeac06140e860a08a018a615803565b838181106140f8576140f8615765565b905060200201602081019061410d9190614c8c565b6001600160a01b0316141561425d57600061412b60208a018a614c8c565b905060006001600160a01b037f000000000000000000000000000000000000000000000000000000000000000016630e81073c8361416c60c08e018e615803565b8781811061417c5761417c615765565b6040516001600160e01b031960e087901b1681526001600160a01b03909416600485015260200291909101356024830152506044016020604051808303816000875af11580156141d0573d6000803e3d6000fd5b505050506040513d601f19601f820116820180604052508101906141f49190615ba3565b6001600160a01b038084166000908152609a602052604090205491925016801561425557614255818461422a60a08f018f615803565b8881811061423a5761423a615765565b905060200201602081019061424f9190614c8c565b85613bcb565b5050506143ea565b7f00000000000000000000000000000000000000000000000000000000000000006001600160a01b031663c4623ea13389898581811061429f5761429f615765565b90506020020160208101906142b49190614c8c565b6142c160a08d018d615803565b868181106142d1576142d1615765565b90506020020160208101906142e69190614c8c565b6142f360c08e018e615803565b8781811061430357614303615765565b60405160e088901b6001600160e01b03191681526001600160a01b03968716600482015294861660248601529290941660448401526020909102013560648201526084019050600060405180830381600087803b15801561436357600080fd5b505af1158015614377573d6000803e3d6000fd5b505050506001600160a01b038216156143ea576143ea823361439c60a08c018c615803565b858181106143ac576143ac615765565b90506020020160208101906143c19190614c8c565b6143ce60c08d018d615803565b868181106143de576143de615765565b90506020020135613bcb565b600101614021565b50505b6040518181527fc97098c2f658800b4df29001527f7324bcdffcf6e8751a699ab920a1eced5b1d9060200160405180910390a1505050505050565b6001600160a01b0383163b1561454a57604051630b135d3f60e11b808252906001600160a01b03851690631626ba7e906144709086908690600401615e5e565b602060405180830381865afa15801561448d573d6000803e3d6000fd5b505050506040513d601f19601f820116820180604052508101906144b19190615ebb565b6001600160e01b031916146111235760405162461bcd60e51b815260206004820152605360248201527f454950313237315369676e61747572655574696c732e636865636b5369676e6160448201527f747572655f454950313237313a2045524331323731207369676e6174757265206064820152721d995c9a599a58d85d1a5bdb8819985a5b1959606a1b608482015260a401610b31565b826001600160a01b031661455e838361472a565b6001600160a01b0316146111235760405162461bcd60e51b815260206004820152604760248201527f454950313237315369676e61747572655574696c732e636865636b5369676e6160448201527f747572655f454950313237313a207369676e6174757265206e6f742066726f6d6064820152661039b4b3b732b960c91b608482015260a401610b31565b6001600160a01b03831673beac0eeeeeeeeeeeeeeeeeeeeeeeeeeeeeebeac014156146955760405162387b1360e81b81526001600160a01b037f0000000000000000000000000000000000000000000000000000000000000000169063387b13009061465e90889088908790600401615d00565b600060405180830381600087803b15801561467857600080fd5b505af115801561468c573d6000803e3d6000fd5b50505050614723565b60405163c608c7f360e01b81526001600160a01b03858116600483015284811660248301526044820184905282811660648301527f0000000000000000000000000000000000000000000000000000000000000000169063c608c7f390608401600060405180830381600087803b15801561470f57600080fd5b505af11580156113e2573d6000803e3d6000fd5b5050505050565b60008060006147398585614746565b91509150610a3b816147b6565b60008082516041141561477d5760208301516040840151606085015160001a61477187828585614971565b945094505050506147af565b8251604014156147a7576020830151604084015161479c868383614a5e565b9350935050506147af565b506000905060025b9250929050565b60008160048111156147ca576147ca615ee5565b14156147d35750565b60018160048111156147e7576147e7615ee5565b14156148355760405162461bcd60e51b815260206004820152601860248201527f45434453413a20696e76616c6964207369676e617475726500000000000000006044820152606401610b31565b600281600481111561484957614849615ee5565b14156148975760405162461bcd60e51b815260206004820152601f60248201527f45434453413a20696e76616c6964207369676e6174757265206c656e677468006044820152606401610b31565b60038160048111156148ab576148ab615ee5565b14156149045760405162461bcd60e51b815260206004820152602260248201527f45434453413a20696e76616c6964207369676e6174757265202773272076616c604482015261756560f01b6064820152608401610b31565b600481600481111561491857614918615ee5565b141561106e5760405162461bcd60e51b815260206004820152602260248201527f45434453413a20696e76616c6964207369676e6174757265202776272076616c604482015261756560f01b6064820152608401610b31565b6000807f7fffffffffffffffffffffffffffffff5d576e7357a4501ddfe92f46681b20a08311156149a85750600090506003614a55565b8460ff16601b141580156149c057508460ff16601c14155b156149d15750600090506004614a55565b6040805160008082526020820180845289905260ff881692820192909252606081018690526080810185905260019060a0016020604051602081039080840390855afa158015614a25573d6000803e3d6000fd5b5050604051601f1901519150506001600160a01b038116614a4e57600060019250925050614a55565b9150600090505b94509492505050565b6000806001600160ff1b03831681614a7b60ff86901c601b615cd1565b9050614a8987828885614971565b935093505050935093915050565b60008083601f840112614aa957600080fd5b5081356001600160401b03811115614ac057600080fd5b6020830191508360208260051b85010111156147af57600080fd5b60008060208385031215614aee57600080fd5b82356001600160401b03811115614b0457600080fd5b614b1085828601614a97565b90969095509350505050565b6001600160a01b038116811461106e57600080fd5b8035614b3c81614b1c565b919050565b600080600080600060a08688031215614b5957600080fd5b8535614b6481614b1c565b94506020860135614b7481614b1c565b93506040860135614b8481614b1c565b94979396509394606081013594506080013592915050565b6020808252825182820181905260009190848201906040850190845b81811015614bd457835183529284019291840191600101614bb8565b50909695505050505050565b600060608284031215614bf257600080fd5b50919050565b60008083601f840112614c0a57600080fd5b5081356001600160401b03811115614c2157600080fd5b6020830191508360208285010111156147af57600080fd5b600080600060808486031215614c4e57600080fd5b614c588585614be0565b925060608401356001600160401b03811115614c7357600080fd5b614c7f86828701614bf8565b9497909650939450505050565b600060208284031215614c9e57600080fd5b8135614ca981614b1c565b9392505050565b600080600060608486031215614cc557600080fd5b8335614cd081614b1c565b92506020840135614ce081614b1c565b929592945050506040919091013590565b600060208284031215614d0357600080fd5b5035919050565b60008060008060408587031215614d2057600080fd5b84356001600160401b0380821115614d3757600080fd5b614d4388838901614a97565b90965094506020870135915080821115614d5c57600080fd5b50614d6987828801614a97565b95989497509550505050565b60008060008060008060008060c0898b031215614d9157600080fd5b8835614d9c81614b1c565b97506020890135614dac81614b1c565b9650604089013595506060890135945060808901356001600160401b0380821115614dd657600080fd5b614de28c838d01614a97565b909650945060a08b0135915080821115614dfb57600080fd5b50614e088b828c01614a97565b999c989b5096995094979396929594505050565b6000806000806000806000806080898b031215614e3857600080fd5b88356001600160401b0380821115614e4f57600080fd5b614e5b8c838d01614a97565b909a50985060208b0135915080821115614e7457600080fd5b614e808c838d01614a97565b909850965060408b0135915080821115614e9957600080fd5b614ea58c838d01614a97565b909650945060608b0135915080821115614dfb57600080fd5b634e487b7160e01b600052604160045260246000fd5b60405160e081016001600160401b0381118282101715614ef657614ef6614ebe565b60405290565b604080519081016001600160401b0381118282101715614ef657614ef6614ebe565b60405160c081016001600160401b0381118282101715614ef657614ef6614ebe565b604051601f8201601f191681016001600160401b0381118282101715614f6857614f68614ebe565b604052919050565b63ffffffff8116811461106e57600080fd5b8035614b3c81614f70565b60006001600160401b03821115614fa657614fa6614ebe565b5060051b60200190565b600082601f830112614fc157600080fd5b81356020614fd6614fd183614f8d565b614f40565b82815260059290921b84018101918181019086841115614ff557600080fd5b8286015b8481101561501957803561500c81614b1c565b8352918301918301614ff9565b509695505050505050565b600082601f83011261503557600080fd5b81356020615045614fd183614f8d565b82815260059290921b8401810191818101908684111561506457600080fd5b8286015b848110156150195780358352918301918301615068565b600060e0828403121561509157600080fd5b615099614ed4565b90506150a482614b31565b81526150b260208301614b31565b60208201526150c360408301614b31565b6040820152606082013560608201526150de60808301614f82565b608082015260a08201356001600160401b03808211156150fd57600080fd5b61510985838601614fb0565b60a084015260c084013591508082111561512257600080fd5b5061512f84828501615024565b60c08301525092915050565b60006020828403121561514d57600080fd5b81356001600160401b0381111561516357600080fd5b61516f8482850161507f565b949350505050565b60006020828403121561518957600080fd5b813560ff81168114614ca957600080fd5b6000604082840312156151ac57600080fd5b6151b4614efc565b905081356151c181614b1c565b815260208201356bffffffffffffffffffffffff811681146151e257600080fd5b602082015292915050565b6000602080838503121561520057600080fd5b82356001600160401b038082111561521757600080fd5b818501915085601f83011261522b57600080fd5b8135615239614fd182614f8d565b81815260059190911b8301840190848101908883111561525857600080fd5b8585015b83811015615332578035858111156152745760008081fd5b860160e0818c03601f190181131561528c5760008081fd5b615294614f1e565b89830135888111156152a65760008081fd5b6152b48e8c83870101614fb0565b825250604080840135898111156152cb5760008081fd5b6152d98f8d83880101615024565b8c8401525060606152eb818601614b31565b82840152608091506152ff8f83870161519a565b9083015261530f60c08501614f82565b9082015261531e838301614b31565b60a08201528552505091860191860161525c565b5098975050505050505050565b801515811461106e57600080fd5b60008060008060006080868803121561536557600080fd5b85356001600160401b038082111561537c57600080fd5b9087019060e0828a03121561539057600080fd5b909550602087013590808211156153a657600080fd5b506153b388828901614a97565b9095509350506040860135915060608601356153ce8161533f565b809150509295509295909350565b600080604083850312156153ef57600080fd5b82356153fa81614b1c565b9150602083013561540a81614b1c565b809150509250929050565b60006040828403121561542757600080fd5b61542f614efc565b905081356001600160401b038082111561544857600080fd5b818401915084601f83011261545c57600080fd5b813560208282111561547057615470614ebe565b615482601f8301601f19168201614f40565b9250818352868183860101111561549857600080fd5b8181850182850137600081838501015282855280860135818601525050505092915050565b600080600080600060a086880312156154d557600080fd5b85356154e081614b1c565b945060208601356154f081614b1c565b935060408601356001600160401b038082111561550c57600080fd5b61551889838a01615415565b9450606088013591508082111561552e57600080fd5b5061553b88828901615415565b95989497509295608001359392505050565b6000806040838503121561556057600080fd5b823561556b81614b1c565b915060208301356001600160401b0381111561558657600080fd5b61559285828601614fb0565b9150509250929050565b600081518084526020808501945080840160005b838110156155cc578151875295820195908201906001016155b0565b509495945050505050565b602081526000614ca9602083018461559c565b600080602083850312156155fd57600080fd5b82356001600160401b0381111561561357600080fd5b614b1085828601614bf8565b6000806040838503121561563257600080fd5b823561563d81614b1c565b946020939093013593505050565b6000806000806080858703121561566157600080fd5b843561566c81614b1c565b935060208501359250604085013561568381614b1c565b9396929550929360600135925050565b600081518084526020808501945080840160005b838110156155cc5781516001600160a01b0316875295820195908201906001016156a7565b6040815260006156df6040830185615693565b82810360208401526112a0818561559c565b60008060006060848603121561570657600080fd5b833561571181614b1c565b925060208401356001600160401b0381111561572c57600080fd5b61573886828701615415565b925050604084013590509250925092565b60006060828403121561575b57600080fd5b614ca98383614be0565b634e487b7160e01b600052603260045260246000fd5b634e487b7160e01b600052601160045260246000fd5b60006000198214156157a5576157a561577b565b5060010190565b60208082526019908201527f5061757361626c653a20696e6465782069732070617573656400000000000000604082015260600190565b60008235605e198336030181126157f957600080fd5b9190910192915050565b6000808335601e1984360301811261581a57600080fd5b8301803591506001600160401b0382111561583457600080fd5b6020019150600581901b36038213156147af57600080fd5b60608101823561585b81614b1c565b6001600160a01b03908116835260208401359061587782614b1c565b166020830152604083013561588b81614f70565b63ffffffff811660408401525092915050565b60208152816020820152818360408301376000818301604090810191909152601f909201601f19160101919050565b6000602082840312156158df57600080fd5b8151614ca981614b1c565b6020808252602a908201527f6d73672e73656e646572206973206e6f74207065726d697373696f6e6564206160408201526939903ab73830bab9b2b960b11b606082015260800190565b60208082526037908201527f44656c65676174696f6e4d616e616765723a206f6e6c7953747261746567794d60408201527f616e616765724f72456967656e506f644d616e61676572000000000000000000606082015260800190565b6000602082840312156159a357600080fd5b8151614ca98161533f565b60208082526028908201527f6d73672e73656e646572206973206e6f74207065726d697373696f6e6564206160408201526739903830bab9b2b960c11b606082015260800190565b6000823560de198336030181126157f957600080fd5b600060208284031215615a1e57600080fd5b8135614ca98161533f565b600060018060a01b03808351168452806020840151166020850152806040840151166040850152506060820151606084015263ffffffff608083015116608084015260a082015160e060a0850152615a8460e0850182615693565b905060c083015184820360c08601526112a0828261559c565b602081526000614ca96020830184615a29565b602081526000825160e06020840152615acd610100840182615693565b90506020840151601f19848303016040850152615aea828261559c565b915050604084015160018060a01b03808216606086015260608601519150808251166080860152506bffffffffffffffffffffffff60208201511660a0850152506080840151615b4260c085018263ffffffff169052565b5060a08401516001600160a01b03811660e0850152610a3b565b60008060408385031215615b6f57600080fd5b8251615b7a8161533f565b6020939093015192949293505050565b82815260406020820152600061516f6040830184615a29565b600060208284031215615bb557600080fd5b5051919050565b600082601f830112615bcd57600080fd5b81516020615bdd614fd183614f8d565b82815260059290921b84018101918181019086841115615bfc57600080fd5b8286015b848110156150195780518352918301918301615c00565b60008060408385031215615c2a57600080fd5b82516001600160401b0380821115615c4157600080fd5b818501915085601f830112615c5557600080fd5b81516020615c65614fd183614f8d565b82815260059290921b84018101918181019089841115615c8457600080fd5b948201945b83861015615cab578551615c9c81614b1c565b82529482019490820190615c89565b91880151919650909350505080821115615cc457600080fd5b5061559285828601615bbc565b60008219821115615ce457615ce461577b565b500190565b600082821015615cfb57615cfb61577b565b500390565b6001600160a01b039384168152919092166020820152604081019190915260600190565b600060208284031215615d3657600080fd5b8135614ca981614f70565b80546001600160a01b0319166001600160a01b0392909216919091179055565b8135615d6c81614b1c565b615d768183615d41565b50600181016020830135615d8981614b1c565b615d938183615d41565b506040830135615da281614f70565b815463ffffffff60a01b191660a09190911b63ffffffff60a01b161790555050565b6000615dd0368361507f565b92915050565b6020808252606e90820152600080516020615efc83398151915260408201527f645769746864726177616c3a207769746864726177616c44656c6179426c6f6360608201527f6b7320706572696f6420686173206e6f74207965742070617373656420666f7260808201526d207468697320737472617465677960901b60a082015260c00190565b82815260006020604081840152835180604085015260005b81811015615e9257858101830151858201606001528201615e76565b81811115615ea4576000606083870101525b50601f01601f191692909201606001949350505050565b600060208284031215615ecd57600080fd5b81516001600160e01b031981168114614ca957600080fd5b634e487b7160e01b600052602160045260246000fdfe44656c65676174696f6e4d616e616765722e5f636f6d706c6574655175657565a2646970667358221220ffb5e101f50fc5f699cdea78c0c203cfab0ab248c3fc5db98d12b11d1eb9d13464736f6c634300080c0033",
    "linkReferences": {}
  },
  "methodIdentifiers": {
    "DELEGATION_APPROVAL_TYPEHASH()": "04a4f979",
    "DOMAIN_TYPEHASH()": "20606b70",
    "MAX_STAKER_OPT_OUT_WINDOW_BLOCKS()": "4fc40b61",
    "MAX_WITHDRAWAL_DELAY_BLOCKS()": "ca661c04",
    "STAKER_DELEGATION_TYPEHASH()": "43377382",
    "beaconChainETHStrategy()": "9104c319",
    "calculateCurrentStakerDelegationDigestHash(address,address,uint256)": "1bbce091",
    "calculateDelegationApprovalDigestHash(address,address,address,bytes32,uint256)": "0b9f487a",
    "calculateStakerDelegationDigestHash(address,uint256,address,uint256)": "c94b5111",
    "calculateWithdrawalRoot((address,address,address,uint256,uint32,address[],uint256[]))": "597b36da",
    "completeQueuedWithdrawal((address,address,address,uint256,uint32,address[],uint256[]),address[],uint256,bool)": "60d7faed",
    "completeQueuedWithdrawals((address,address,address,uint256,uint32,address[],uint256[])[],address[][],uint256[],bool[])": "33404396",
    "cumulativeWithdrawalsQueued(address)": "a1788484",
    "decreaseDelegatedShares(address,address,uint256)": "132d4967",
    "delegateTo(address,(bytes,uint256),bytes32)": "eea9064b",
    "delegateToBySignature(address,address,(bytes,uint256),(bytes,uint256),bytes32)": "7f548071",
    "delegatedTo(address)": "65da1264",
    "delegationApprover(address)": "3cdeb5e0",
    "delegationApproverSaltIsSpent(address,bytes32)": "bb45fef2",
    "domainSeparator()": "f698da25",
    "earningsReceiver(address)": "5f966f14",
    "eigenPodManager()": "4665bcda",
    "getDelegatableShares(address)": "cf80873e",
    "getOperatorShares(address,address[])": "90041347",
    "getWithdrawalDelay(address[])": "0449ca39",
    "increaseDelegatedShares(address,address,uint256)": "28a573ae",
    "initialize(address,address,uint256,uint256,address[],uint256[])": "22bf40e4",
    "isDelegated(address)": "3e28391d",
    "isOperator(address)": "6d70f7ae",
    "migrateQueuedWithdrawals((address[],uint256[],address,(address,uint96),uint32,address)[])": "5cfe8d2c",
    "minWithdrawalDelayBlocks()": "c448feb8",
    "modifyOperatorDetails((address,address,uint32))": "f16172b0",
    "operatorDetails(address)": "c5e480db",
    "operatorShares(address,address)": "778e55f3",
    "owner()": "8da5cb5b",
    "pause(uint256)": "136439dd",
    "pauseAll()": "595c6a67",
    "paused()": "5c975abb",
    "paused(uint8)": "5ac86ab7",
    "pauserRegistry()": "886f1195",
    "pendingWithdrawals(bytes32)": "b7f06ebe",
    "queueWithdrawals((address[],uint256[],address)[])": "0dd8dd02",
    "registerAsOperator((address,address,uint32),string)": "0f589e59",
    "renounceOwnership()": "715018a6",
    "setMinWithdrawalDelayBlocks(uint256)": "635bbd10",
    "setPauserRegistry(address)": "10d67a2f",
    "setStrategyWithdrawalDelayBlocks(address[],uint256[])": "1522bf02",
    "slasher()": "b1344271",
    "stakerNonce(address)": "29c77d4f",
    "stakerOptOutWindowBlocks(address)": "16928365",
    "strategyManager()": "39b70e38",
    "strategyWithdrawalDelayBlocks(address)": "c488375a",
    "transferOwnership(address)": "f2fde38b",
    "undelegate(address)": "da8be864",
    "unpause(uint256)": "fabc1cbc",
    "updateOperatorMetadataURI(string)": "99be81c8"
  },
  "id": 102
}